:100000000C9450000C94AE030C94AE030C94AE030D
:100010000C94AE030C94AE030C94AE030C94AE039C
:100020000C94AE030C94AE030C94AE030C94AE038C
:100030000C94AE030C94AE030C94AE030C94AE037C
:100040000C94AE030C94AE030C94AE030C94AE036C
:100050000C94AE0300D400D68000D600D78000D721
:1000600000D88000D800D980009A00A600079A0026
:10007000BE00C90007BE00A600B20007A600C90066
:10008000D40007C900B200BE0007B2008D009A007C
:10009000078D0079008D0007790060007900076006
:1000A00011241FBECFE5D8E0DEBFCDBFE4E5F0E010
:1000B00040E017C0B591A59135912591059107FDB7
:1000C0000CC095918591EF01F92FE82F05900D92C5
:1000D000A217B307D9F7FE0104C01D92A217B307F8
:1000E000E1F7E03AF40731F70E947A000C947800C7
:0400F000F894FFCFB2
:1000F4000E944C0380E690E00E94920340E050E0AE
:1001040063E080E090E00E944C0140E050E063E056
:1001140081E090E00E944C0140E050E063E082E026
:1001240090E00E944C0141E050E063E085E090E003
:100134000E944C0141E050E063E086E090E00E94C0
:100144004C0141E050E063E087E090E00E944C0104
:1001540080E00E94820382E00E94820363E085E0E3
:1001640090E00E94140263E086E090E00E94140292
:1001740063E087E090E00E941402C1E0DC2F63E0BA
:1001840080E090E00E94CC02892B89F0D093D800C3
:1001940063E085E090E00E9454028091D80042EB35
:1001A40050E06DE870E090E00E946A0307C010928E
:1001B400D80063E085E090E00E94140263E081E0EF
:1001C40090E00E94CC02892B89F063E086E090E005
:1001D4000E9490028091D7008C278093D70046EA32
:1001E40050E069EC70E090E00E946A0363E082E012
:1001F40090E00E94CC02892B69F18091D6008C2773
:100204008093D60063E087E090E00E9490028091A2
:10021400D6004AE950E06EEB70E090E00E946A0379
:100224002FEF8DE399E4215080409040E1F700C026
:10023400000063E087E090E00E9490028091D60085
:100244008C278093D6004AE950E06EEB70E090E092
:100254000E946A0363E083E090E00E94CC02892B51
:1002640009F48DCF0E94A10389E790E00E949203D4
:100274001092D5001092D4000E94CB018091D4003A
:100284009091D50001969093D5008093D4000A975D
:040294009CF375CF93
:1002980041305105E1F5613099F028F06230E9F01C
:1002A800633041F108954AB321E030E0B90102C05A
:1002B800660F771F8A95E2F7CB01842B8ABB0895D6
:1002C80047B321E030E0B90102C0660F771F8A9575
:1002D800E2F7CB01842B87BB089544B321E030E0DB
:1002E800B90102C0660F771F8A95E2F7CB01842B0C
:1002F80084BB089541B321E030E0B90102C0660F24
:10030800771F8A95E2F7CB01842B81BB0895613072
:10031800A1F028F06230F9F0633059F108954AB33A
:1003280021E030E0B90102C0660F771F8A95E2F735
:10033800CB01809584238ABB089547B321E030E040
:10034800B90102C0660F771F8A95E2F7CB01809545
:10035800842387BB089544B321E030E0B90102C08B
:10036800660F771F8A95E2F7CB018095842384BBBB
:10037800089541B321E030E0B90102C0660F771F4C
:0E0388008A95E2F7CB018095842381BB08950E
:1003960063E085E090E00E94540263E086E090E02E
:1003A6000E94140263E087E090E00E9414022FE7A7
:1003B6008FE492E1215080409040E1F700C00000B8
:1003C60063E085E090E00E94140263E086E090E03E
:1003D6000E94540263E087E090E00E9414022FE737
:1003E6008FE492E1215080409040E1F700C0000088
:1003F60063E085E090E00E94140263E086E090E00E
:100406000E94140263E087E090E00E9454022FE706
:100416008FE492E1215080409040E1F700C0000057
:02042600089537
:100428006130A1F028F06230F9F0633059F1089595
:100438004BB321E030E0B90102C0660F771F8A95FF
:10044800E2F7CB01809584238BBB089548B321E064
:1004580030E0B90102C0660F771F8A95E2F7CB0139
:100468008095842388BB089545B321E030E0B90125
:1004780002C0660F771F8A95E2F7CB018095842327
:1004880085BB089542B321E030E0B90102C0660F90
:10049800771F8A95E2F7CB018095842382BB089564
:1004A800613099F028F06230E9F0633041F1089545
:1004B8004BB321E030E0B90102C0660F771F8A957F
:1004C800E2F7CB01842B8BBB089548B321E030E0E1
:1004D800B90102C0660F771F8A95E2F7CB01842B1A
:1004E80088BB089545B321E030E0B90102C0660F2A
:1004F800771F8A95E2F7CB01842B85BB089542B319
:1005080021E030E0B90102C0660F771F8A95E2F753
:08051800CB01842B82BB089586
:10052000613099F028F06230E9F0633041F10895CC
:100530004BB321E030E0B90102C0660F771F8A9506
:10054000E2F7CB0184278BBB089548B321E030E06C
:10055000B90102C0660F771F8A95E2F7CB018427A5
:1005600088BB089545B321E030E0B90102C0660FB1
:10057000771F8A95E2F7CB01842785BB089542B3A4
:1005800021E030E0B90102C0660F771F8A95E2F7DB
:08059000CB01842782BB089512
:10059800613081F028F06230B9F06330F9F028C09A
:1005A80029B330E002C0359527958A95E2F7217086
:1005B80033271FC026B330E002C0359527958A95AA
:1005C800E2F72170332715C023B330E002C0359518
:1005D80027958A95E2F7217033270BC020B330E0C6
:1005E80002C0359527958A95E2F72170332701C017
:0805F8000895822F932F08954E
:100600009BB39F70282F207F922B9BBBC198C39ACE
:1006100038E23A95F1F7C398EFE6F7E13197F1F751
:1006200000C000002BB32F70F0E18F9FC001112498
:10063000822B8BBBC39A34E03A95F1F7C3988FE6CF
:0C06400097E10197F1F700C00000089559
:10064C009BB39F70282F207F922B9BBBC19AC39A80
:10065C0038E23A95F1F7C398E7E5F2E03197F1F714
:10066C0000C000002BB32F70F0E18F9FC00111244C
:10067C00822B8BBBC39A38E23A95F1F7C39887E08B
:0C068C0092E50197F1F700C0000008950E
:100698008FEF8ABB8FE087BBC2988FE59AEE0197F0
:1006A800F1F700C0000083E30E94000382E30E9488
:1006B800000388E20E9400038CE00E94000386E0A9
:0C06C8000E94000381E00E9400030895DE
:1006D4000F931F93CF93DF938B01EA01892B31F0A2
:1006E4000E94A103C8010E94920305C00E94A103B5
:1006F400CE010E949203DF91CF911F910F91089533
:10070400813041F028F0823039F0833039F0089597
:100714001BBA089518BA089515BA089512BA08951F
:10072400CF93DF93EC018881882331F021960E94D6
:0E073400260389918111FBCFDF91CF910895AB
:1007420081E00E9400038FE697E10197F1F700C074
:0A075200000080E80E9400030895F3
:04075C000C940000F9
:100760005075736820796F7572206465736972655E
:090770006420627574746F6E0060
:100779005368696674696E67204C4544204C696703
:04078900687473001D
:0D078D004C45443020666C61736865640063
:0C079A004C454432206973204F46460055
:0C07A6004C454431206973204F4646004A
:0C07B2004C454430206973204F4646003F
:0B07BE004C454432206973204F4E0070
:0B07C9004C454431206973204F4E0066
:00000001FF
