:100000000C942A000C94DC010C94DC010C94DC01AF
:100010000C94DC010C94DC010C94DC010C94DC01EC
:100020000C94DC010C94DC010C94DC010C94DC01DC
:100030000C94DC010C94DC010C94DC010C94DC01CC
:100040000C94DC010C94DC010C94DC010C94DC01BC
:100050000C94DC0111241FBECFE5D8E0DEBFCDBF7C
:0C0060000E94B5000C943400F894FFCF0F
:10006C0041305105E1F5613099F028F06230E9F04A
:10007C00633041F108954AB321E030E0B90102C088
:10008C00660F771F8A95E2F7CB01842B8ABB089504
:10009C0047B321E030E0B90102C0660F771F8A95A3
:1000AC00E2F7CB01842B87BB089544B321E030E009
:1000BC00B90102C0660F771F8A95E2F7CB01842B3A
:1000CC0084BB089541B321E030E0B90102C0660F52
:1000DC00771F8A95E2F7CB01842B81BB08956130A1
:1000EC00A1F028F06230F9F0633059F108954AB369
:1000FC0021E030E0B90102C0660F771F8A95E2F764
:10010C00CB01809584238ABB089547B321E030E06E
:10011C00B90102C0660F771F8A95E2F7CB01809573
:10012C00842387BB089544B321E030E0B90102C0B9
:10013C00660F771F8A95E2F7CB018095842384BBE9
:10014C00089541B321E030E0B90102C0660F771F7A
:0E015C008A95E2F7CB018095842381BB08953C
:10016A0040E050E063E080E090E00E94360040E02A
:10017A0050E063E081E090E00E94360040E050E009
:10018A0063E082E090E00E94360041E050E063E0E4
:10019A0085E090E00E94360041E050E063E086E0AE
:1001AA0090E00E94360041E050E063E087E090E092
:1001BA000E94360080E00E94CC0182E00E94CC01BD
:1001CA0063E080E090E00E949801892B31F063E0BF
:1001DA0085E090E00E945C0105C063E085E090E064
:1001EA000E941C0163E081E090E00E949801892B43
:1001FA0031F063E086E090E00E945C0105C063E0B4
:10020A0086E090E00E941C0163E082E090E00E9498
:10021A009801892B31F063E087E090E00E945C014D
:0E022A00CFCF63E087E090E00E941C01C9CFB7
:100238006130A1F028F06230F9F0633059F1089587
:100248004BB321E030E0B90102C0660F771F8A95F1
:10025800E2F7CB01809584238BBB089548B321E056
:1002680030E0B90102C0660F771F8A95E2F7CB012B
:100278008095842388BB089545B321E030E0B90117
:1002880002C0660F771F8A95E2F7CB018095842319
:1002980085BB089542B321E030E0B90102C0660F82
:1002A800771F8A95E2F7CB018095842382BB089556
:1002B800613099F028F06230E9F0633041F1089537
:1002C8004BB321E030E0B90102C0660F771F8A9571
:1002D800E2F7CB01842B8BBB089548B321E030E0D3
:1002E800B90102C0660F771F8A95E2F7CB01842B0C
:1002F80088BB089545B321E030E0B90102C0660F1C
:10030800771F8A95E2F7CB01842B85BB089542B30A
:1003180021E030E0B90102C0660F771F8A95E2F745
:08032800CB01842B82BB089578
:10033000613081F028F06230B9F06330F9F028C004
:1003400029B330E002C0359527958A95E2F72170F0
:1003500033271FC026B330E002C0359527958A9514
:10036000E2F72170332715C023B330E002C0359582
:1003700027958A95E2F7217033270BC020B330E030
:1003800002C0359527958A95E2F72170332701C081
:080390000895822F932F0895B8
:10039800813041F028F0823039F0833039F0089507
:1003A8001BBA089518BA089515BA089512BA08958F
:0403B8000C940000A1
:00000001FF
