:100000000C9456000C940E020C94A2040C94A204BE
:100010000C94A2040C94A2040C94A2040C94A204C8
:100020000C94A2040C94A2040C94A2040C94A204B8
:100030000C94A2040C94A2040C94A2040C94A204A8
:100040000C94A2040C94A2040C94A2040C94A20498
:100050000C94A20400D700D98000D900DA8000DA1D
:1000600000DB8000DB00DC800060007100094800DC
:100070009D00A900098500C100CC0009A900A900C4
:10008000B500099100CC00D70009B400B500C1004B
:10009000099D0090009D0009780082009000096A87
:1000A0000071008200095900DC00DD8011241FBEB0
:1000B000CFE5D8E0DEBFCDBFE4E5F0E040E017C01B
:1000C000B591A59135912591059107FD0CC09591AC
:1000D0008591EF01F92FE82F05900D92A217B30734
:1000E000D9F7FE0104C01D92A217B307E1F7EC3A5D
:1000F000F40731F70E9480000C947E00F894FFCF43
:1001000062E070E080E00E949B0178940E942404E9
:1001100081E790E00E94860440E050E063E080E0E8
:1001200090E00E941C0140E050E063E081E090E03C
:100130000E941C0141E050E063E085E090E00E94F5
:100140001C0141E050E063E086E090E00E941C0169
:1001500041E050E063E087E090E00E941C0180E015
:100160000E94760482E00E94760463E085E090E0DD
:100170000E94B90263E086E090E00E94B90263E069
:1001800087E090E00E94B902D1E0CD2F63E080E0EB
:1001900090E00E947103892B89F0C093DB0063E03B
:1001A00085E090E00E94F9028091DB0045EB50E091
:1001B00060E970E090E00E945E0407C01092DB00EE
:1001C00063E085E090E00E94B90263E081E090E0A6
:1001D0000E947103892B89F063E086E090E00E9421
:1001E00035038091DA008D278093DA0049EA50E0E8
:1001F0006CEC70E090E00E945E0463E083E090E0CD
:100200000E947103892B11F20E94950482E890E00C
:100210000E9486041092D8001092D7000E947002AB
:100220008091D7009091D80001969093D800809348
:08023000D7000A979CF3AACF46
:1002380041305105E1F5613099F028F06230E9F07C
:10024800633041F108954AB321E030E0B90102C0BA
:10025800660F771F8A95E2F7CB01842B8ABB089536
:1002680047B321E030E0B90102C0660F771F8A95D5
:10027800E2F7CB01842B87BB089544B321E030E03B
:10028800B90102C0660F771F8A95E2F7CB01842B6C
:1002980084BB089541B321E030E0B90102C0660F84
:1002A800771F8A95E2F7CB01842B81BB08956130D3
:1002B800A1F028F06230F9F0633059F108954AB39B
:1002C80021E030E0B90102C0660F771F8A95E2F796
:1002D800CB01809584238ABB089547B321E030E0A1
:1002E800B90102C0660F771F8A95E2F7CB018095A6
:1002F800842387BB089544B321E030E0B90102C0EC
:10030800660F771F8A95E2F7CB018095842384BB1B
:10031800089541B321E030E0B90102C0660F771FAC
:0E0328008A95E2F7CB018095842381BB08956E
:1003360063307105D9F4813059F018F0823079F0C4
:1003460015C095B7936095BF9BB790649BBF4EC091
:1003560095B79C6095BF9BB790689BBF47C094B705
:10036600906494BF9BB790629BBF40C0623071059A
:1003760009F5813071F018F08230A9F01BC085B7FD
:10038600826085BF85B78E7F85BF8BB780648BBF44
:10039600089585B7886085BF85B78B7F85BF8BB786
:1003A60080688BBF089584B78F7B84BF8BB78062CC
:1003B6008BBF089561307105C9F4882319F0813027
:1003C60059F014C085B78D7F85BF85B7816085BF1D
:1003D6008BB780648BBF089585B7877F85BF85B748
:1003E600846085BF8BB780688BBF0895672B91F4B7
:1003F600882319F0813041F0089585B78C7F85BF39
:100406008BB780648BBF089585B7837F85BF8BB715
:0604160080688BBF089511
:10041C001F920F920FB60F921124EF92FF920F932F
:10042C001F932F933F934F935F936F937F938F9370
:10043C009F93AF93BF93CF93EF93FF938091D9008A
:10044C00C1E08C278093D90063E087E090E00E94A4
:10045C0035038091D9000F2EF0E6EF2EF0E0FF2E41
:10046C00F02D0DE910E021EC30E041E060E090E08F
:10047C000E94A5032FEF8DE399E42150804090401A
:10048C00E1F700C0000063E087E090E00E943503D4
:10049C008091D9008C278093D90021EC30E041E089
:1004AC0060E090E00E94A503FF91EF91CF91BF9186
:1004BC00AF919F918F917F916F915F914F913F91F0
:1004CC002F911F910F91FF90EF900F900FBE0F90F7
:0404DC001F901895C0
:1004E00063E085E090E00E94F90263E086E090E03E
:1004F0000E94B90263E087E090E00E94B9022FE712
:100500008FE492E1215080409040E1F700C000006C
:1005100063E085E090E00E94B90263E086E090E04D
:100520000E94F90263E087E090E00E94B9022FE7A1
:100530008FE492E1215080409040E1F700C000003C
:1005400063E085E090E00E94B90263E086E090E01D
:100550000E94B90263E087E090E00E94F9022FE771
:100560008FE492E1215080409040E1F700C000000C
:020570000895EC
:100572006130A1F028F06230F9F0633059F108954A
:100582004BB321E030E0B90102C0660F771F8A95B4
:10059200E2F7CB01809584238BBB089548B321E019
:1005A20030E0B90102C0660F771F8A95E2F7CB01EE
:1005B2008095842388BB089545B321E030E0B901DA
:1005C20002C0660F771F8A95E2F7CB0180958423DC
:1005D20085BB089542B321E030E0B90102C0660F45
:1005E200771F8A95E2F7CB018095842382BB089519
:1005F200613099F028F06230E9F0633041F10895FA
:100602004BB321E030E0B90102C0660F771F8A9533
:10061200E2F7CB01842B8BBB089548B321E030E095
:10062200B90102C0660F771F8A95E2F7CB01842BCE
:1006320088BB089545B321E030E0B90102C0660FDE
:10064200771F8A95E2F7CB01842B85BB089542B3CD
:1006520021E030E0B90102C0660F771F8A95E2F708
:08066200CB01842B82BB08953B
:10066A00613099F028F06230E9F0633041F1089581
:10067A004BB321E030E0B90102C0660F771F8A95BB
:10068A00E2F7CB0184278BBB089548B321E030E021
:10069A00B90102C0660F771F8A95E2F7CB0184275A
:1006AA0088BB089545B321E030E0B90102C0660F66
:1006BA00771F8A95E2F7CB01842785BB089542B359
:1006CA0021E030E0B90102C0660F771F8A95E2F790
:0806DA00CB01842782BB0895C7
:1006E200613081F028F06230B9F06330F9F028C04F
:1006F20029B330E002C0359527958A95E2F721703B
:1007020033271FC026B330E002C0359527958A955E
:10071200E2F72170332715C023B330E002C03595CC
:1007220027958A95E2F7217033270BC020B330E07A
:1007320002C0359527958A95E2F72170332701C0CB
:080742000895822F932F089502
:10074A00CF92DF92EF92FF920F931F93CF93DF9393
:10075A00D62FC42F6901892B79F00E949504A6012E
:10076A006091DC008D2F0E944204A7016091DC0099
:10077A008C2F0E9442040EC00E949504A801609129
:10078A00DC008D2F0E944204A7016091DC008C2FAF
:10079A000E944204DF91CF911F910F91FF90EF9039
:0607AA00DF90CF900895DE
:1007B0009BB39F70282F207F922B9BBBC198C39A1D
:1007C00038E23A95F1F7C398EFE6F7E13197F1F7A0
:1007D00000C000002BB32F70F0E18F9FC0011124E7
:1007E000822B8BBBC39A34E03A95F1F7C3988FE61E
:0C07F00097E10197F1F700C000000895A8
:1007FC009BB39F70282F207F922B9BBBC19AC39ACF
:10080C0038E23A95F1F7C398E7E5F2E03197F1F762
:10081C0000C000002BB32F70F0E18F9FC00111249A
:10082C00822B8BBBC39A38E23A95F1F7C39887E0D9
:0C083C0092E50197F1F700C0000008955C
:100848008FEF8ABB8FE087BBC2988FE59AEE01973E
:10085800F1F700C0000083E30E94D80382E30E94FE
:10086800D80388E20E94D8038CE00E94D80386E06F
:0C0878000E94D80381E00E94D80308957C
:10088400CF93DF93EA01811108C0603178F4862F99
:100894008F7080680E94D80309C0813039F46031B8
:1008A40028F4862F8F70806C0E94D803CE010E949A
:0808B4008604DF91CF91089545
:1008BC000F931F93CF93DF938B01EA01892B31F0B8
:1008CC000E949504C8010E94860405C00E949504EC
:1008DC00CE010E948604DF91CF911F910F91089554
:1008EC00813041F028F0823039F0833039F00895AE
:1008FC001BBA089518BA089515BA089512BA089536
:10090C00CF93DF93EC018881882331F021960E94EC
:0E091C00FE0389918111FBCFDF91CF910895E9
:10092A0081E00E94D8038FE697E10197F1F700C0B2
:0A093A00000080E80E94D803089531
:040944000C9400000F
:100948002A2A2A494E54455252555054532A2A2A83
:01095800009E
:100959005075736820796F757220427574746F6E63
:01096900008D
:0E096A005368696674696E67204C45445300FB
:0D0978004C45443020666C61736865640076
:0C0985004C454432206973204F46460068
:0C0991004C454431206973204F4646005D
:0C099D004C454430206973204F46460052
:0B09A9004C454432206973204F4E0083
:0B09B4004C454431206973204F4E0079
:00000001FF
